:1000000045C0000060C000005EC000005CC0000091
:1000100067C10000B5C1000056C0000054C0000018
:1000200052C0000050C000004EC000004CC0000094
:100030004AC0000048C0000046C0000044C00000A4
:1000400042C0000040C000003EC000003CC00000B4
:100050003AC0000038C0000036C0000034C00000C4
:1000600032C0000030C000002EC000002CC00000D4
:100070002AC0000028C0000026C0000024C00000E4
:1000800022C0000020C000001EC0000011241FBEBE
:10009000CFEFD0E1DEBFCDBF11E0A0E0B1E0E8E2FC
:1000A000F8E000E00BBF02C007900D92A634B10744
:1000B000D9F721E0A6E4B1E001C01D92A736B2074E
:1000C000E1F7D6D1AFC39CCFFC017183608353832A
:1000D0004283248381E08583FB01308181E090E0CD
:1000E00002C0880F991F2A95E2F7809583238083A9
:1000F000089581B3836081BB88E480937000089584
:1001000084EA80937400809174008823E4F7089552
:1001100084E98093740008958093730084E8809349
:100120007400809174008823E4F70895CF93DF93DF
:10013000D82FC62FE5DF8D2FEFDF8C2FEDDFE8DF27
:10014000DF91CF910895609146016B7F60934601E6
:100150008EE4ECDF609146016460609346018EE4BA
:10016000E5DF609146016B7F609346018EE4DEDF40
:100170008FEF98E10197F1F700C000000895CF9349
:10018000C82F809146018F709C2F907F892B809380
:100190004601D9DF20E1C29FC001112490914601A0
:1001A0009F70892B80934601CEDFCF910895909167
:1001B00046019C7F90934601E2CF089590914601BD
:1001C00091609D7F90934601DACF0895609146013A
:1001D0006860609346018EE4A9CF08956F708170C6
:1001E00090E4899F600D1124862F8058E0CF0895F8
:1001F0000F931F93CF938C01C0E002C0DFDFCF5F6E
:10020000F801EC0FF11D80818111F8CFCF911F9182
:100210000F910895CF93DF93EA01E0DFCE01E8DF8D
:10022000DF91CF91089565DF2FEF80E792E02150B5
:1002300080409040E1F700C0000083E0B8DF8FE32A
:100240009CE90197F1F700C0000083E0B0DF8FE97F
:100250009FE00197F1F700C0000083E0A8DF82E093
:10026000A6DF88E2A4DF88E0A2DF81E0A0DF86E0ED
:100270009EDF8CE09CDFAACF089587B3806487BBA4
:100280008FB580618FBD8EB58A608EBD0895CF9386
:10029000DF93EC011BC022962115310519F41BBC1C
:1002A0001ABC0BC0032E000C440B550B60E472E427
:1002B0008FE090E095D23BBD2ABD2FEF89E698E113
:1002C000215080409040E1F700C000002881398132
:1002D0002115310501F71BBC1ABCDF91CF910895A0
:1002E0001F920F920FB60F9211240BB60F922F93FD
:1002F0003F934F935F936F937F938F939F93AF93AE
:10030000BF93EF93FF93839B28C08BB381708BBB0C
:100310008BE0E0E0F1E0A7E4B1E001900D928A9576
:10032000E1F747E451E069E081E074DF1092830077
:1003300010928200829BE9CF86E0EBE0F1E0A7E437
:10034000B1E001900D928A95E1F747E451E069E050
:1003500081E060DF8BB38FEF8BBBFF91EF91BF919B
:10036000AF919F918F917F916F915F914F913F914D
:100370002F910F900BBE0F900FBE0F901F901895EE
:100380001F920F920FB60F9211240BB60F922F935C
:100390003F934F935F936F937F938F939F93AF930D
:1003A000BF93EF93FF9381E090E090936601809379
:1003B00065010C9B35C037DF8BB31BBA10928300ED
:1003C0001092820085E0E9E2F1E0A7E4B1E001905B
:1003D0000D928A95E1F747E451E064E081E01ADF8D
:1003E0002FEF87EA91E6215080409040E1F700C06E
:1003F000000088E0E1E1F1E0A7E4B1E001900D92B6
:100400008A95E1F747E451E064E081E003DF2FEFF4
:1004100087EA91E6215080409040E1F700C000005B
:10042000FF91EF91BF91AF919F918F917F916F91CC
:100430005F914F913F912F910F900BBE0F900FBE88
:100440000F901F901895ABE8B0E08C9181608C9371
:10045000EAE8F0E08081886080838C9188608C93EA
:1004600080818360808310928300109282000895BF
:10047000CF93DF93CDB7DEB762970FB6F894DEBFA8
:100480000FBECDBF12B8CFDEDEDF49E151E060E044
:1004900080E0C0DE4FE151E069E080E0BBDE47E292
:1004A00051E060E081E0B6DE89B7886189BF8AB734
:1004B00083608ABFEAE6F0E08081806C8083789474
:1004C00022E041E250E062E270E0CE010196FCDD04
:1004D00023E041E250E062E270E0CE010796F4DDF5
:1004E00024E041E250E062E270E0CE010D96ECDDE6
:1004F00082B1856282B98AB38FEF8ABB49E151E04C
:1005000060E080E087DE4FE151E069E080E082DE7C
:1005100047E251E060E081E07DDE829BEFCF8BB36C
:100520008FEF8BBB86E0EBE0F1E0A7E4B1E0019058
:100530000D928A95E1F747E451E069E081E06ADED7
:1005400090E037C083B18B7F83B983B1816083B979
:100550002FE730E030938300209382002FEF33EDBC
:1005600080E3215030408040E1F700C0000020913E
:10057000650130916601232BF1F483B18E7F83B93D
:1005800083B1846083B92FE730E0309383002093F8
:1005900082002FEF33ED80E3215030408040E1F7BF
:1005A00000C000002091650130916601232B19F4F1
:1005B0009F5F953038F28091650190916601892B9B
:1005C00049F0109266011092650183B18FEF83B9F3
:1005D0002ADE94CF83B18FEF83B98091650190912A
:1005E0006601892B49F0109266011092650183B172
:1005F0008FEF83B918DE82CF9FEF29E638E1915063
:1006000020403040E1F700C00000809165019091EA
:100610006601892B49F0109266011092650183B141
:100620008FEF83B900DE6ACF86E0EBE0F1E0A7E46C
:10063000B1E001900D928A95E1F747E451E069E05D
:1006400081E0E8DD8FEF93EC29E08150904020407D
:10065000E1F700C000008091650190916601892B4F
:1006600031F1109266011092650183B18FEF83B969
:10067000DADD44CF83B18B7F83B983B1816083B9E5
:100680002FE730E030938300209382003FEF83ED2B
:1006900020E3315080402040E1F700C0000020916D
:1006A000650130916601232B29F49F5F01C090E022
:1006B000953000F38091650190916601892B49F096
:1006C000109266011092650183B18FEF83B9ABDDA3
:1006D00015CF86E0EBE0F1E0A7E4B1E001900D92E8
:1006E0008A95E1F747E451E069E081E093DD90E02D
:1006F0001CC083B18B7F83B983B1816083B92FEF35
:1007000030E030938300209382003FEF83ED20E3BD
:10071000315080402040E1F700C000002091650189
:1007200030916601232B19F49F5F953010F380916F
:10073000650190916601892B49F010926601109233
:10074000650183B18FEF83B96EDDD8CE8BB31BBA51
:1007500083B18FEF83B98091650190916601892BF8
:1007600049F0109266011092650183B18FEF83B951
:100770005ADDC4CE8AE0EEE2F1E0A7E4B1E00190F8
:100780000D928A95E1F747E451E069E081E042DDAE
:1007900074DD80E491E07BDD8FE99FE00197F1F764
:1007A00000C000008091650190916601892B49F09D
:1007B000109266011092650183B18FEF83B933DD2A
:1007C0009DCE88E0E8E3F1E0A7E4B1E001900D926E
:1007D0008A95E1F747E451E069E081E01BDD8ECEC8
:1007E000A1E21A2EAA1BBB1BFD010DC0AA1FBB1F35
:1007F000EE1FFF1FA217B307E407F50720F0A21BA7
:10080000B30BE40BF50B661F771F881F991F1A9413
:1008100069F760957095809590959B01AC01BD013D
:08082000CF010895F894FFCF09
:10082800706175736520202020200072756E21216B
:1008380000676F6F6462796500312E7372740032DD
:100848002E706175736500332E73746F700066695E
:100858006E6973682020200020202020202020009E
:060868000601000008007B
:00000001FF
