:1000000045C0000058C0000056C0000054C00000A9
:1000100052C0000050C000004EC000004CC00000A4
:100020004AC0000048C0000046C0000044C00000B4
:1000300042C0000040C000003EC000003CC00000C4
:100040003AC0000038C0000036C0000034C00000D4
:1000500032C0000030C000002EC000002CC00000E4
:100060002AC0000028C0000026C0000024C00000F4
:1000700022C0000020C000001EC000001CC0000004
:100080001AC0000018C0000016C0000011241FBED6
:10009000CFEFD0E1DEBFCDBF11E0A0E0B1E0E2E8FC
:1000A000F1E000E00BBF02C007900D92A431B10750
:1000B000D9F735D064C0A4CF87B3806487BB8FB530
:1000C00080618FBD8EB58A608EBD0895CF93DF931A
:1000D000EC011BC022962115310519F41BBC1ABC7A
:1000E0000BC0032E000C440B550B60E472E48FE050
:1000F00090E023D03BBD2ABD2FEF89E698E1215047
:1001000080409040E1F700C000002881398121152E
:10011000310501F71BBC1ABCDF91CF910895CCDFEC
:1001200080E091E0D3DF2FEF83ED90E3215080401A
:100130009040E1F700C00000F3CFA1E21A2EAA1B05
:10014000BB1BFD010DC0AA1FBB1FEE1FFF1FA21787
:10015000B307E407F50720F0A21BB30BE40BF50B84
:10016000661F771F881F991F1A9469F7609570950D
:10017000809590959B01AC01BD01CF010895F89445
:02018000FFCFAF
:10018200060126014A015D018801B801EE010B0258
:040192000000080061
:00000001FF
