S00E00004932432832292E73726563D5
S113000045C0000060C000005EC000005CC000008D
S11300105AC0000058C0000056C0000054C0000080
S113002052C0000050C000004EC000004CC0000090
S11300304AC0000048C0000046C0000044C00000A0
S113004042C0000040C000003EC000003CC00000B0
S11300503AC0000038C0000036C0000034C00000C0
S113006032C0000030C000002EC000002CC00000D0
S11300702AC0000028C0000026C0000024C00000E0
S113008022C0000020C000001EC0000011241FBEBA
S1130090CFEFD0E1DEBFCDBF11E0A0E0B1E0E2E3FD
S11300A0FBE000E00BBF02C007900D92AA33B1073A
S11300B0D9F721E0AAE3B1E001C01D92A134B2074F
S11300C0E1F7D3D134C59CCFE1E6F0E080818061D3
S11300D08083808180628083808180648083E2E683
S11300E0F0E080818F7E8083808180628083808144
S11300F08F7B80830895E2E6F0E0808180648083D2
S11301000895E2E6F0E080818F7B80830895E2E643
S1130110F0E080818061808380818F7E8083089578
S1130120E2E6F0E08081806280830895E2E6F0E018
S113013080818F7D80830895E1E6F0E080818F7D6A
S113014080830895E1E6F0E08081806280830895F1
S11301509DEC899F912D112496959695969520E175
S1130160929FA0011124990F292F220F220F920F81
S1130170891B842B0895982F92959F70990F292F8E
S1130180220F220F920F8F70890F08951F93CF9320
S1130190DF93182FD7DFC0E0D0E00FC0812F90E0AD
S11301A00C2E02C0959587950A94E2F780FF02C051
S11301B0B7DF01C0BBDFABDF2196C830D10574F3D4
S11301C0DF91CF911F910895CF93DF93D82FC62F3E
S11301D092DF8D2FDBDF8C2FBBDFD8DF92DFDF9147
S11301E0CF910895CF93DF93CDB7DEB727970FB69E
S11301F0F894DEBF0FBECDBF3A834B835C836D831F
S11302007E838F83622F80E8DFDF6A8182E8DCDF10
S11302106B8184E8D9DF6C8186E8D6DF6D8188E85C
S1130220D3DF6E818AE8D0DF6F818CE8CDDF27963B
S11302300FB6F894DEBF0FBECDBFDF91CF91089506
S11302401F93CF93DF9378DFC0E0D0E010E013C0BA
S1130250059B09C081E090E00C2E02C0880F991F15
S11302600A94E2F702C080E090E0182BC730D10571
S113027009F04DDF2196C830D10554F3812FDF9169
S1130280CF911F910895CF93C82F35DF81E08C0F54
S11302907DDFD6DFC82F35DF8C2F6DDFCF9108953A
S11302A0CF93DF93EC0180E8EEDF888382E8EBDF15
S11302B0898384E8E8DF8A83DF91CF910895CF931F
S11302C0DF93EC0186E8DFDF8B8388E8DCDF8C8357
S11302D08AE8D9DF8D838CE8D6DF8E83DF91CF91D6
S11302E0089581B3836081BB88E48093700008958E
S11302F084EA80937400809174008823E4F708955D
S113030084E98093740008958093730084E8809353
S11303107400809174008823E4F70895CF93DF93E9
S1130320D82FC62FE5DF8D2FEFDF8C2FEDDFE8DF31
S1130330DF91CF91089560913A016B7F60933A0108
S11303408EE4ECDF60913A01646060933A018EE4DC
S1130350E5DF60913A016B7F60933A018EE4DEDF62
S11303608FEF98E10197F1F700C000000895CF9353
S1130370C82F80913A018F709C2F907F892B809396
S11303803A01D9DF20E1C29FC001112490913A01C2
S11303909F70892B80933A01CEDFCF91089590917D
S11303A03A019C7F90933A01E2CF089590913A01EB
S11303B091609D7F90933A01DACF089560913A015C
S11303C0686060933A018EE4A9CF08956F708170DC
S11303D090E4899F600D1124862F8058E0CF089502
S11303E00F931F93CF938C01C0E002C0DFDFCF5F78
S11303F0F801EC0FF11D80818111F8CFCF911F918D
S11304000F910895CF93DF93EA01E0DFCE01E8DF97
S1130410DF91CF91089565DF2FEF80E792E02150BF
S113042080409040E1F700C0000083E0B8DF8FE334
S11304309CE90197F1F700C0000083E0B0DF8FE989
S11304409FE00197F1F700C0000083E0A8DF82E09D
S1130450A6DF88E2A4DF88E0A2DF81E0A0DF86E0F7
S11304609EDF8CE09CDFAACF0895CF93DF93CDB7B6
S1130470DEB7A5970FB6F894DEBF0FBECDBF67D029
S113048080E091E090933E0180933D011DDE87E181
S11304908F8385E08D8380E18C8381E08E838EE081
S11304A08B838CE18A83198220E03CE14EE050E1A9
S11304B065E071E087E196DEAEDF4EE051E060E09A
S11304C080E0A0DF44E151E060E081E09BDFCE0109
S11304D00196E6DECE010196F2DE2C819D818F81AC
S11304E01F922F931F929F931F928F938AE191E003
S11304F09F938F938E01085F1F4F1F930F933CD0E0
S1130500A80165E080E07EDF29819A818B811F92BA
S11305102F931F929F931F928F938BE291E09F934F
S11305208F931F930F9328D0A80165E081E06ADFC1
S11305302FEF83ED90E3215080409040E1F700C01D
S113054000000FB6F894DEBF0FBECDBFC0CF10922F
S113055090008FEC89B98BB182608BB98AB18061CC
S11305608AB98AB188608AB98AB180688AB90895DB
S11305705D9BFECF8CB908950F931F93CF93DF93A8
S1130580CDB7DEB72E970FB6F894DEBF0FBECDBF42
S11305900D891E8986E08C831A8309838FEF9FE778
S11305A09E838D83AE01475E5F4F6F89788DCE0148
S11305B0019610D0EF81F885E00FF11F10822E967E
S11305C00FB6F894DEBF0FBECDBFDF91CF911F9160
S11305D00F9108952F923F924F925F926F927F9264
S11305E08F929F92AF92BF92CF92DF92EF92FF923F
S11305F00F931F93CF93DF93CDB7DEB72B970FB62F
S1130600F894DEBF0FBECDBF6C017B018A01FC01F3
S113061017821682838181FFBFC1CE0101963C01FE
S1130620F6019381F70193FD859193FF81917F01F9
S1130630882309F4ADC1853239F493FD859193FF84
S113064081917F01853221F4B60190E0D6D1E8CFC3
S1130650912C212C312CFFE1F315D8F08B3279F059
S113066038F4803279F08332A1F4232D20611DC047
S11306708D3261F0803369F4232D216016C0832DFF
S11306808260382EE32DE4603E2E2AC0F32DF860FC
S11306901DC037FC2DC020ED280F2A3040F08E32CB
S11306A0B9F436FC75C1232D2064322E19C036FEF0
S11306B006C08AE0989E200D1124922E11C0EAE013
S11306C02E9E200D1124222EF32DF0623F2E08C001
S11306D08C3621F4832D8068382E02C0883641F48C
S11306E0F70193FD859193FF81917F018111B3CF30
S11306F0982F9F7D9554933028F40C5F1F4F9FE3F0
S113070099830DC0833631F0833771F0833509F056
S113071055C020C0F801808189830E5F1F4F882453
S11307208394912C530112C02801F2E04F0E511C06
S1130730F801A080B18036FE03C0692D70E002C0CC
S11307406FEF7FEFC5014ED14C018201F32DFF778E
S11307503F2E15C0280122E0420E511CF801A08052
S1130760B18036FE03C0692D70E002C06FEF7FEFE9
S1130770C5012DD14C01F32DF0683F2E820133FCCD
S113078019C0822D90E088169906A0F4B60180E283
S113079090E033D12A94F5CFF50137FC859137FEEB
S11307A081915F01B60190E028D121102A9421E0C3
S11307B0821A91088114910479F7E1C0843611F00A
S11307C0893639F5F80137FE07C06081718182816D
S11307D093810C5F1F4F08C060817181072E000C4C
S11307E0880B990B0E5F1F4FF32DFF763F2E97FF5B
S11307F009C090958095709561957F4F8F4F9F4F5D
S1130800F0683F2E2AE030E0A30133D1882E861809
S113081044C0853731F4232D2F7EB22E2AE030E0F8
S113082025C0932D997FB92E8F36C1F018F48835E1
S113083079F0AEC0803719F0883721F0A9C0E92FCC
S1130840E061BE2EB4FE0DC0FB2DF460BF2E09C0C6
S113085034FE0AC0292F2660B22E06C028E030E0FC
S113086005C020E130E002C020E132E0F801B7FE2B
S113087007C060817181828193810C5F1F4F06C024
S11308806081718180E090E00E5F1F4FA301F1D081
S1130890882E8618FB2DFF773F2E36FE0DC0232DA4
S11308A02E7FA22E891458F434FE0BC032FC09C0EA
S11308B0832D8E7EA82E05C0B82CA32C03C0B82C83
S11308C001C0B92CA4FE0FC0FE01E80DF11D80810A
S11308D0803321F49A2D997EA92E09C0A2FE06C068
S11308E0B394B39404C08A2D867809F0B394A3FC1E
S11308F010C0A0FE06C0B21480F4280C922C9B18E1
S11309000DC0B21458F4B60180E290E076D0B394EE
S1130910F8CFB21418F42B1802C0982C212CA4FE82
S11309200FC0B60180E390E068D0A2FE16C0A1FC1F
S113093003C088E790E002C088E590E0B6010CC0EF
S11309408A2D867851F0A1FE02C08BE201C080E2BC
S1130950A7FC8DE2B60190E050D0891430F4B601C2
S113096080E390E04AD09A94F8CF8A94F301E80D9A
S1130970F11D8081B60190E040D08110F6CF222095
S113098009F44ECEB60180E290E037D02A94F7CF36
S1130990F6018681978102C08FEF9FEF2B960FB6E9
S11309A0F894DEBF0FBECDBFDF91CF911F910F91A1
S11309B0FF90EF90DF90CF90BF90AF909F908F907B
S11309C07F906F905F904F903F902F900895FC011F
S11309D00590615070400110D8F7809590958E0F66
S11309E09F1F0895FC016150704001900110D8F7D9
S11309F0809590958E0F9F1F08950F931F93CF930B
S1130A00DF93FB01238121FD03C08FEF9FEF2CC0F7
S1130A1022FF16C04681578124813581421753072E
S1130A2044F4A081B1819D012F5F3F4F3183208326
S1130A308C93268137812F5F3F4F3783268314C0E1
S1130A408B01EC01FB010084F185E02D0995892BD4
S1130A50E1F6D80116968D919C91179701961796F9
S1130A609C938E931697CE01DF91CF911F910F9196
S1130A700895FA01AA27283051F1203181F1E89430
S1130A806F936E7F6E5F7F4F8F4F9F4FAF4FB1E07D
S1130A903ED0B4E03CD0670F781F891F9A1FA11D78
S1130AA0680F791F8A1F911DA11D6A0F711D811D79
S1130AB0911DA11D20D009F468943F912AE0269F3E
S1130AC011243019305D3193DEF6CF010895462F9D
S1130AD04770405D4193B3E00FD0C9F7F6CF462F7E
S1130AE04F70405D4A3318F0495D31FD40524193E7
S1130AF002D0A9F7EACFB4E0A695979587957795A4
S1130B006795BA95C9F700976105710508959B012A
S1130B10AC010A2E06945795479537952795BA95B3
S1130B20C9F7620F731F841F951FA01D0895F894C1
S1050B30FFCFF1
S1130B320000000200000000B8020000000044416E
S1130B4254453A0054494D453A0032302532642E18
S1130B52253032642E253032642E00253032643A38
S10D0B62253032643A253032640075
S9030000FC
