:1000000045C0000060C000005EC000005CC0000091
:100010005AC00000B4C10000C3C1000054C00000B9
:1000200052C0000050C000004EC000004CC0000094
:100030004AC0000048C0000046C0000044C00000A4
:1000400058C1000040C000003EC000003CC000009D
:100050003AC0000038C0000036C0000034C00000C4
:1000600032C0000030C000002EC000002CC00000D4
:100070002AC0000028C0000026C0000024C00000E4
:1000800022C0000020C000001EC0000011241FBEBE
:10009000CFEFD0E1DEBFCDBF11E0A0E0B1E0E6E5FB
:1000A000F4E000E00BBF02C007900D92AA30B10748
:1000B000D9F721E0AAE0B1E001C01D92A231B20758
:1000C000E1F7A0D1C6C19CCF83B7846083BF86E02F
:1000D00082BF87B7816087BFE1E6F0E080818F60F3
:1000E00080838FEF84BB0895803127E2920710F060
:1000F0008FE097E290930C0180930B01089580911B
:100100000B0190910C010895E2E6F0E09081906F70
:10011000908321E030E002C0220F331F8A95E2F77E
:10012000209520830895CF93DF93CDB7DEB72A972C
:100130000FB6F894DEBF0FBECDBF9AE0E0E0F1E06D
:10014000DE01119601900D929A95E1F7E1E0F0E061
:10015000EC0FFD1FE80FF11D808185BB2A960FB6BD
:10016000F894DEBF0FBECDBFDF91CF910895E2E6D8
:10017000F0E08081806F80830895CF93DF93BFDFAD
:10018000EC0180910A0190E00196837090789923A8
:1001900024F401978C6F9F6F019680930A01E7DF2B
:1001A00080910A018130A9F138F0823009F458C0F9
:1001B000833009F47AC094C09E0136952795369510
:1001C000279536952795A5ECB0E234D1AC01529530
:1001D00042954F7045275F7045279A01ADECBCEC06
:1001E00029D19695879596958795969587959C01A3
:1001F000220F331F880F991F880F991F880F991F8F
:10020000820F931F242F281B822F8DDF83E07CDF3A
:1002100067C09E013695279536952795ABE7B4E1E3
:1002200009D1AC01569547959A01ADECBCEC02D1D1
:100230009695879596958795969587959C01220F1B
:10024000331F880F991F880F991F880F991F820FDE
:10025000931F242F281B822F66DF82E055DF40C0CA
:100260009E01ADECBCECE6D0AC0156954795569599
:100270004795569547959A01DDD096958795969521
:100280008795969587959C01220F331F880F991F9C
:10029000880F991F880F991F820F931F242F281BE7
:1002A000822F41DF81E030DF1BC09E01ADECBCEC52
:1002B000C1D09695879596958795969587959C013B
:1002C000220F331F880F991F880F991F880F991FBE
:1002D000820F931F2C2F281B822F25DF80E014DF35
:1002E00083EC99E00197F1F700C00000DF91CF9116
:1002F00008951F920F920FB60F9211240BB60F9212
:100300002F933F934F935F936F937F938F939F931D
:10031000AF93BF93EF93FF9380910F0190911001E2
:1003200001969093100180930F0180910F0190919D
:1003300010018436910581F480910D0190910E0198
:100340009C012F5F3F4F30930E0120930D01CCDEB7
:100350001092100110920F01FF91EF91BF91AF9198
:100360009F918F917F916F915F914F913F912F91CD
:100370000F900BBE0F900FBE0F901F9018951F92FD
:100380000F920FB60F9211248F93809111018095D7
:10039000809311018F910F900FBE0F901F901895B1
:1003A0001F920F920FB60F9211240BB60F922F933C
:1003B0003F934F935F936F937F938F939F93AF93ED
:1003C000BF93EF93FF9310920E0110920D0180E006
:1003D00090E08ADE80911101809580931101FF9158
:1003E000EF91BF91AF919F918F917F916F915F91AD
:1003F0004F913F912F910F900BBE0F900FBE0F901A
:100400001F9018958AB782608ABF8AB788608ABFB2
:1004100089B7806389BF58DE789480911101882361
:1004200021F083B7887F83BF03C083B7846083BF15
:10043000A4DEF3CFA29FB001B39FC001A39F700DB4
:10044000811D1124911DB29F700D811D1124911DDC
:060450000895F894FFCFAF
:0A0456003F065B4F666D7D277F6750
:00000001FF
