:1000000045C000004BC0000049C0000047C00000D0
:1000100045C0000044C0000054C000003FC00000C4
:100020003DC000003BC0000039C0000037C00000E8
:1000300035C0000033C0000031C000002FC00000F8
:100040002DC000002BC0000029C0000027C0000008
:1000500025C0000023C0000021C000001FC0000018
:100060001DC000001BC0000019C0000017C0000028
:1000700015C0000013C0000011C000000FC0000038
:100080000DC000000BC0000009C0000011241FBEFD
:10009000CFEFD0E1DEBFCDBF26D034C0B1CF1F92AD
:1000A0000F920FB60F9211248F939F939BB381E011
:1000B00089278BBB9F918F910F900FBE0F901F9040
:1000C00018951F920F920FB60F9211248F939F9342
:1000D0009BB382E089278BBB9F918F910F900FBEBE
:1000E0000F901F9018958AB782608ABF8AB78C607C
:1000F0008ABF89B7806389BF82B182B98FEF8ABB1B
:080100007894FFCFF894FFCFC3
:00000001FF
