:1000000045C0000053C0000051C000004FC00000B8
:100010004DC000004BC0000049C0000047C00000B8
:1000200045C0000043C0000041C000003FC00000C8
:100030003DC000003BC0000039C0000037C00000D8
:1000400035C0000033C0000032C000002FC00000E7
:100050002DC000002BC0000029C0000027C00000F8
:1000600025C0000023C0000021C000001FC0000008
:100070001DC000001BC0000019C0000017C0000018
:1000800015C0000013C0000011C0000011241FBEE5
:10009000CFEFD0E1DEBFCDBF21E0A0E0B1E001C0F5
:1000A0001D92A636B207E1F733D070C0A9CF1F92D8
:1000B0000F920FB60F9211240BB60F928F939F934E
:1000C000EF93FF938CB18A3011F08D3061F4E091A1
:1000D0000001F0E0EE5FFE4F10821092000181E01F
:1000E000809301010AC090910001E92FF0E0EE5FDA
:1000F000FE4F80839F5F90930001FF91EF919F914E
:100100008F910F900BBE0F900FBE0F901F90189500
:100110008FEF8ABB11D0789480910101813029F44E
:100120001092010182E091E01CD081E680930101F0
:100130008AB38FEF8ABBF0CF109290008FEC89B911
:100140008BB182608BB98AB180618AB98AB18860CB
:100150008AB98AB180688AB908955D9BFECF8CB94F
:1001600008950F931F93CF93DF938C01C0E0D0E0ED
:1001700002C0F3DF2196F801EC0FFD1F8081811191
:10018000F8CFDF91CF911F910F910895F894FFCF91
:00000001FF
